:100000007BC1AFC194C193C192C191C190C18FC155
:100010008EC18DC18CC18BC18AC189C1DCC287C12F
:1000200086C185C184C183C182C181C180C17FC1B4
:100030007EC17DC100000000000000007D000000C6
:10004000007000700000147F147F1400122A7F2AB1
:100050002400122A7F2A2400364955220500000078
:1000600060000000001C224100000041221C000032
:1000700014083E08140008083E08080000000506A1
:100080000000000005060000000003030000020459
:10009000081020003E4549513E0000217F0100002C
:1000A0002143454931002241494936000C14247F3F
:1000B0000400725151514E001E2949490600604703
:1000C000485060003649494936003049494A3C00A9
:1000D00000003636000000003536000008142241CA
:1000E00000001414141414000041221408002040CD
:1000F0004548300026494F413E003F4444443F00BC
:100100007F49494936003E41414122007F414141FA
:100110003E007F49494941007F48484840003E41F0
:1001200041492F007F0808087F0000417F410000FF
:100130000241417E40007F08142241007F010101FD
:1001400001007F2018207F007F1008047F003E41BF
:1001500041413E007F48484830003E4145423D0015
:100160007F484C4A310032494949260040407F408F
:1001700040007E0101017E007C0201027C007E01C4
:100180000E017E00631408146300700807087000F5
:10019000434549516100007F41410000201008049F
:1001A00002000041417F00001020402010000101AA
:1001B00001010100004020100000021515150F007C
:1001C0007F0911110E000E11111102000E111109FB
:1001D0007F000E1515150C00083F4840200008153B
:1001E00015151E007F0810100F0000095F010000A8
:1001F000000201115E00007F040A110000417F012E
:1002000000001F100F100F001F0810100F000E111C
:1002100011110E001F14141408000814140C1F00F0
:100220001F0810100800091515150200107E110195
:1002300002001E0101021F001C0201021C001E011F
:1002400006011E00110A040A1100180505051E000A
:1002500011131519110000083641000000007F003D
:1002600000000041360800000408080408000432B9
:10027000023204000600FF0901A10115002600FF5B
:100280007508850195800900B202018502958009F3
:1002900000B20201C0040309041A035500430061BF
:1002A000006C0067006100720079002D005A006F39
:1002B000006F0010035500530042002D0050004F06
:1002C0000056001201100100000008C016DF0500F2
:1002D000020102000109022200010100800A090452
:1002E000000001030000000921010100012221009A
:1002F000070581030800640011241FBECFEFD2E080
:10030000DEBFCDBF11E0A0E0B1E0E6E6FFE002C055
:1003100005900D92A230B107D9F712E0A2E0B1E04A
:1003200001C01D92A834B107E1F762D21AC668CEA7
:10033000A82FB92F80E090E041E050EA609530E0CE
:1003400009C02D9182279795879510F084279527CE
:10035000305EC8F36F5FA8F30895EADF8D939D9335
:100360000895CF93CFB7CF93C3954E9BE9F74E9B9C
:1003700009C04E9B07C04E9B05C04E9B03C04E9BC1
:1003800001C0A3C0DF93C0912B02DD27CE5CDD4FFF
:100390004E9B02C0DF91EBCF2F930F931F9309B1B8
:1003A0002FEF06FB20F94F933F9319B14FEF012731
:1003B00006FB21F93BE031C04E7F012F19B12160CE
:1003C00028C0102F4D7F2260000009B129C04B7F4B
:1003D0002460012F000019B12BC019B1477F28609C
:1003E0002AC04F7E09B120612CC04F7D19B1206217
:1003F0002FC04F7B09B1206432C0422709B1499315
:100400004FEF0000102716FB20F919B11474C9F141
:10041000297F91F2012706FB21F909B1237F89F297
:10042000315058F1102716FB22F919B1277E79F2C5
:10043000012706FB23F92F7C81F209B1102716FB57
:1004400024F92F7971F200C019B1012706FB25F9B3
:100450002F7359F200C009B1102716FB26F922307C
:1004600040F200C019B1012706FB27F9243028F615
:100470004F77206819B10000F9CF11E01CBB0027AD
:1004800019C03B503195C31BD04011E01CBB088103
:10049000033CF9F00B34E9F0209129021981110F86
:1004A0001213EDCF4A81441F093641F10D3211F08C
:1004B000013E29F7009330023F914F911F910F9118
:1004C0002F91DF91CCB3C0FD4FCFCF91CFBFCF9154
:1004D000189520913002222379F310912E021123D6
:1004E00069F534306AF130932E0220932A0210917C
:1004F0002B023BE0311B30932B0222C000912E02D5
:100500000130E4F40AE54F7049F43091000134FD04
:1005100019C000930001C2E1D2E018C030911D0261
:1005200034FD10C000931D02CEE1D2E00FC027952C
:10053000A8F45150A9F4220F0000F9CF4AE503C0F6
:1005400042ED01C0432FC4E1D0E032E01AB114649F
:100550005E9A1AB90BB120E414E45F93012756E0C8
:100560000BB9279520F4515021F4220FF9CF012720
:1005700056E000003B5A0BB9D0F2279528F45150B1
:1005800029F4220F0000F9CF012756E027950BB977
:1005900020F4515021F4220FF9CF012756E0299180
:1005A00033230BB921F60B7B10912F02110FC6518B
:1005B000D0400BB911F01093290211E01CBB00646C
:1005C0001AB11B7B402F4B7B5F9100C000C00BB961
:1005D0001AB94BB971CF1F920F920FB60F92112417
:1005E0002F933F935F936F937F938F939F93AF93DB
:1005F000BF93EF93FF9380910B0190910C0127B56E
:10060000820F911D90930C0180930B018091090141
:100610008130A1F482E08093090180910A01813048
:1006200009F059C080910D0190E0909303018093EF
:10063000020110920501109204014DC08091090140
:10064000882309F048C080916E008D7F80936E00F2
:1006500020910B0130910C018091100290911102B8
:1006600028173907C0F110920C0110920B0105C038
:1006700080910D018F5F80930D01E0910D01F0E0FD
:10068000E95EFE4F80818A3099F780910D018F5F7E
:1006900080930D0190910D018091DF01981728F052
:1006A00010920D0110920E0109C080910E018E5F13
:1006B00003C080910E018F5F80930E01E0910E01C7
:1006C000F0E0E95EFE4F80818A3099F780910E015B
:1006D000815080930E0180910601882309F06AC041
:1006E00081E080930601E0910201F0910301E95E4F
:1006F000FE4F208120522036A8F0822F90E08056B5
:1007000090402091040130910501FC01EE0FFF1F84
:10071000E80FF91FEE0FFF1FE20FF31FE052FE4F2D
:10072000E0810DC08091040190910501E6E02E9FCB
:10073000F0011124E80FF91FEC5CFF4FE4918E2FBC
:100740008095807FEF708E2B8BB9809107019091FF
:10075000080163E070E0C0D367BD80910A01813079
:10076000B9F58091040190910501019690930501DE
:10077000809304018091040190910501069769F42A
:1007800010920501109204018091020190910301E1
:100790000196909303018093020120910201309110
:1007A000030180910E0190E0821793078CF4109260
:1007B00009010EC01092060180EF8BB980910701EC
:1007C00090910801880F991F63E070E085D367BDA1
:1007D000FF91EF91BF91AF919F918F917F916F9119
:1007E0005F913F912F910F900FBE0F901F90189522
:1007F000CF92DF92EF92FF920F931F93CF93DF93ED
:10080000809181008460809381002EE088E190E0F7
:100810000FB6F894A895809360000FBE20936000F7
:1008200010D163D178941092850010928400A8951D
:1008300069D180910F018823D1F780918400909134
:100840008500865F9D4998F388E10FB6F894809300
:100850006000109260000FBEE89880918100846073
:100860008093810085B5856085BD84B5826084BD37
:100870008FEF8AB980EF8BB9B0D280E090E04FD390
:100880008093DF0187E191E061E070E048EC50E0A7
:1008900037D389EC90E04BD39093110280931002F0
:1008A00080EE91E06BEC70E040E350E029D305C0AE
:1008B00080910E018F5F80930E01E0910E01F0E0B8
:1008C000E95EFE4F80818A3099F780910E01815058
:1008D00080930E01109285001092840016BCFF24B4
:1008E00011E0EE2400E0CC24DD24C0E0D0E001C023
:1008F00010E081E057D2813E54F5FF2041F5C091D0
:100900008400D09185001092850010928400CE0161
:10091000880F991F8C0F9D1F6BE070E0DDD26B017B
:10092000123031F4FF24F394EE24E39401E01DC06F
:10093000113031F0FF24F394EE24E39401E013C06E
:10094000FF24F39412E0EE24E39401E0D2CF1130BF
:1009500081F2FF2041F08F3124F4813E14F0FF2416
:1009600002C0FF24F394112321F68091840090911A
:100970008500C816D90608F0BBCF002309F4B8CF0C
:10098000EE2019F081E080930A0181E08093090153
:1009900060910E0180910D0170E06F5F7F4F681BC9
:1009A0007109CE01E4E096958795EA95E1F794D236
:1009B0009B01CB0166E070E08FD2709308016093D9
:1009C000070116BC3695279527BD80916E00826081
:1009D00080936E0010E0EE2400E08BCF21E02093A6
:1009E0000F01FC0180818076803249F58181813060
:1009F00089F49281913019F41092100105C092305F
:100A000029F480E8809310019093140181E8809389
:100A1000110113C0893099F48281813019F4109248
:100A2000120105C0823019F480E88093120181E040
:100A30008093150181E8809313018FEF089580E082
:100A4000089580EB8BB9569A20E048EB5BE004C038
:100A5000A895CA010197F1F72150D1F7569808954A
:100A60001F939C0180911301882309F1162F86178B
:100A700008F4182F80911501882329F02F5F3F4F2C
:100A800011501092150160911201C90170E0412FBF
:100A900050E051D280911201810F80931201809118
:100AA0001301811B8093130190E0882309F491E0E6
:100AB000892F1F9108951F9320911101162F26173A
:100AC00008F4122F6091100170E0412F50E018D20D
:100AD00080911001810F8093100180911101811B81
:100AE00080931101812F1F910895E9E6F0E0808144
:100AF00082608083E89A8BE480931E028AE580936B
:100B00001D0208951F93CF93DF9360912E026350CF
:100B100067FDC2C080912B02CCE0D0E0C81BD10998
:100B2000CE5CDD4F80912A028D3209F0A3C068307F
:100B300009F0B0C083EC809312028AE58093000133
:100B4000109216018881807639F0CE0147DF282F78
:100B50008F3F09F47EC084C09A8110921B02898164
:100B6000882321F410921C0222E06CC0853019F415
:100B700090932F0266C0863009F04FC08B81813080
:100B800041F483EC92E090932D0280932C0222E1B9
:100B900040C0823041F485ED92E090932D02809325
:100BA0002C0222E236C08330F9F48A81882341F492
:100BB00085E992E090932D0280932C0224E029C0D5
:100BC000813041F489E992E090932D0280932C02C8
:100BD0002AE11FC08230E1F483EB92E090932D0272
:100BE00080932C0220E115C0813241F487EE92E01F
:100BF00090932D0280932C0229E00BC0823241F4A5
:100C000084E792E090932D0280932C0221E201C0B0
:100C100020E080E48093160123C0883021F421E095
:100C200081E392E011C0893019F49093310209C038
:100C30008A3011F421E006C08B3019F48BE48093E4
:100C40001E0220E08BE192E090932D0280932C0213
:100C500007C0888187FD2E8180E88093160106C039
:100C60008F81882319F48E81821708F0822F809358
:100C7000010110C08091160187FF0CC0CE01F0DE8B
:100C80008F3F21F48EE18093000104C0882311F08E
:100C90001092010110922E028091000184FF58C031
:100CA000809101018F3F09F453C0182F893008F05B
:100CB00018E0811B809301018091120298E8892736
:100CC00080931202112391F18091160187FF08C0D1
:100CD00083E192E0612FEFDE182F893098F526C06E
:100CE00020912C0230912D0286FF0DC0A3E1B2E0CD
:100CF00080E090E0F901E80FF91FE491ED9301968F
:100D00001817C1F708C0912FD901E3E1F2E08D91E6
:100D100081939150E1F71150812F90E01F5F019670
:100D2000820F931F90932D0280932C0283E192E017
:100D3000612F13DB612F6C5F6C3041F08FEF80937C
:100D4000010104C08FEF809301016EE16093000107
:100D500094E189B1847431F49150D9F710922F0243
:100D600010922902DF91CF911F9108951F93DF9375
:100D7000CF930F92CDB7DEB7182F88E990E060E0EF
:100D800067D0812F88D088E990E061E061D0CE0102
:100D9000019660E08AD07CD089810F90CF91DF915D
:100DA0001F9108951F93182F812FE0DF86FDFCCF40
:100DB0008F7385FD806C1F9108950F931F93182FDB
:100DC000062F88E990E060E043D0812F64D0802F27
:100DD00062D05ED01F910F91089516D087E060E039
:100DE000ECDF85E060E0E9DF86E060E5E6DF89E0F2
:100DF00060EEE3DF88E060E6E0DF8AE060E0DDDF10
:100E000087E061E0DADF08951092B90084E0809312
:100E1000B8000895813049F0813028F0823039F0EF
:100E2000833071F408C084EA03C084E801C084EC14
:100E30008093BC0005C084E98093BC0080E00895E5
:100E40008091BC0087FFFCCF8091B900887F089516
:100E50000F931F93062F10E0082B1F5F1B35A1F087
:100E600080E0D8DF8833C9F3883011F0803161F435
:100E70000093BB0081E0CEDF803279F3883369F3E1
:100E8000883111F480E001C08FEF1F910F91089518
:100E900083E0C0DF08958093BB0081E0BBDF883230
:100EA00011F480E008958FEF0895CF93DF93EC0164
:100EB000662329F082E0AEDF803551F404C081E082
:100EC000A9DF883529F48091BB00888380E001C0C8
:100ED0008FEFDF91CF910895AA1BBB1B51E107C093
:100EE000AA1FBB1FA617B70710F0A61BB70B881FBA
:100EF000991F5A95A9F780959095BC01CD01089549
:100F0000DC01862FE82FF999FECF12BC05C0E1BDA8
:100F1000F89AE39500B40D924150C8F70895F999F5
:100F2000FECF12BC81BDF89A992780B50895A8E13B
:100F3000B0E042E0E7CFDC01862F02C02D9104D063
:100F40004150E0F70895262FF999FECF1FBA12BC41
:100F500081BD20BD0FB6F894FA9AF99A0FBE01969A
:060F60000895F894FFCF94
:020F66005AFF30
:00000001FF
